:0D07DA0001480F01491E015900C100C10175
:070748001207A67F0A7E00E4
:10074F00EF4E60147D6E7C00ED1D70011CED4C7042
:08075F00F7EF1F70EB1E80E8AC
:01076700226F
:1007A600C292C2A0C2A18F807F017E0012074FD2E3
:0B07B600927F017E0012074FC29222CA
:05076800255AF8E6FF30
:10076D00C292D2A0C2A18F807F017E0012074FD20C
:0B077D00927F017E0012074FC2922203
:1007C1007F381207487F061207487F0C1207487FBF
:0907D100011207487F820207A60D
:0807E8007F6C7E91DEFEDFFC58
:0107F00022E6
:0807F1007F367EC7DEFEDFFC4F
:0107F90022DD
:1005C100EF540FFBEF54F0C4540FFEFD7C00C374D5
:1005D100809480400FD3ED9409748094805005EE8F
:1005E10024308003EE2437FF12076DEBFF7E00C33A
:1005F10074809480400FD3EF9409748094805005E7
:0C060100EB24308003EB2437FF12076D60
:01060D0022CA
:100700001206B27F331206D9E4F50EC3E50E940843
:1007100074809480500E1207257433250EF8A607B6
:04072000050E80E75B
:0107240022B2
:10068200E559702B120700AF3A1205C1AF391205B6
:10069200C1AF381205C1AF371205C1AF361205C15D
:1006A200AF351205C1AF341205C1AF331205C122F5
:10064D00E559703075214E75225575234D7524422F
:10065D0075254575265275273A75282075292075FB
:10066D002A20752B20752C20752D20752E20752F89
:05067D00207530202271
:1002A400E5A0541F4480F5A07580FF53A01FE5A06E
:1002B400541F44C0F5A075800053A01F1207C1123B
:1002C400074B20B01012074B20B00A7F011207A67B
:1002D400B20130B0FD3001030204E412060E8F0BAC
:1002E4008E0A8D098C08E4FFFE7DC87C42AB0BAA04
:1002F4000AA909A8081200031201C0AB07AA0675CF
:100304003B54753C65753D6D753E70753F3A7C0395
:100314007DE8120241EF2430F5407C037DE8AF0311
:10032400AE021202417E007F64CFCDCFCECCCE127E
:100334000241EF2430F54175422E7C007D64AF0309
:10034400AE021202417E007F0ACFCDCFCECCCE12B8
:100354000241EF2430F5437C007D0AAF03AE021264
:100364000241ED2430F544AE02AF037C037DE81274
:100374000241EF2430F5457546DF754743AC49E447
:1003840012018CAB0BAA0AA909A808120109403A68
:10039400E5A0541F44A0F5A075804053A01FE5A01C
:1003A400541F4480F5A07580FB53A01F7FF47E0189
:1003B40012074FE5A0541F4480F5A07580FF53A099
:1003C4001F7FF47E0112074F804CAC48E412018C6D
:1003D400AB0BAA0AA909A8081201096002501BE57F
:1003E400A0541F44A0F5A07580AF53A01FE5A054EE
:1003F4001F4480F5A07580FE8019E5A0541F44A019
:10040400F5A075801053A01FE5A0541F4480F5A0EB
:100414007580FD53A01F7F821207A6E4F55AC3E539
:100424005A940C74809480500C743B120768120721
:100434004B055A80E920B10B12074B20B102B200E0
:1004440030B1FD20B21212074B20B20C300004056B
:10045400498002054830B2FD20B31C12074B20B37B
:1004640016300004154980021548E549D3954850D3
:100474000385484930B3FD7FC01207A6754A487505
:100484004B3AE54975F00A842430F54CE54975F09A
:100494000A84E5F02430F54D754EDF754F437550F1
:1004A4002075512075524C75533AE54875F00A840D
:1004B4002430F554E54875F00A84E5F02430F55508
:1004C4007556DF755743E4F55AC3E55A940E7480A4
:1004D4009480500C744A12076812074B055A80E93D
:0604E4002001030202C624
:1004EA0012064D7F801207A6E4F50CC3E50C9410A2
:1004FA0074809480500E7421250CF8E6FF12076D63
:10050A00050C80E77FC01207A6120682E4F50DC328
:10051A00E50D94107480948040030202C6745B2532
:0B052A000DF8E6FF12076D050D80E4E0
:040788007F057E006B
:10078C00EF1FAA0670011E4A600FE4FDEDC3940C26
:09079C007480948050EA0D80F392
:0107A5002231
:1006B200C202D2947F0C7E0012078CC2947F507EBD
:1006C2000012078CD2947F0A7E0012078CA29492A9
:0606D20002120788A202DB
:0106D80022FF
:0206D900A9076F
:1006DB00E4FBEBC39408748094805012C294E9132A
:1006EB009294120788D294E9C313F90B80E47F0527
:0506FB007E0002078CE7
:10072500E4FBEBC39408748094805014C294ECC32A
:1007350013FCD2943094034304801207880B80E2A3
:02074500AF04FF
:01074700228F
:10060E001206B27FCC1206D97F441206D97FC87E5D
:10061E000012078C1206B27FCC1206D97FBE1206CC
:10062E00D9120725A907120725EFFEE9FFE4AD074A
:0F063E00AC06120187E4FBFA7980783D020003D5
:10000300EC4D6011E8497017ED33EC3304600DE4F7
:10001300FCFFFEFD22E933E8330470F802022C12E0
:1000230001F758046009E4CC2481500628500902E2
:100033000236284003020233C0E0EB4A7044B98021
:1000430006D0E0FB020222EF4E701CBD8008EBFFDE
:10005300EAFEE9FD80EBE98DF0A4FEE5F00200EC99
:10006300E9CDF9EAFEEBFFEF89F0A4FCE5F0CE89D8
:10007300F0A42EFFE435F0CD89F0A42DFEE435F095
:100083008067EF4E7005BD80D780C3EF8BF0A4ACC3
:10009300F0EE8BF0A42CFCE435F0F8EF8AF0A42CFE
:1000A300E5F038FCE433CB8DF0A42CFCE5F03BF811
:1000B300EE8AF0A42CFCE5F038F8E433CF89F0A401
:1000C3002CFCE5F038CF3400CE89F0A42FFFE5F007
:1000D3003EFEE433C98DF0A42EFEE5F039CD8AF05F
:1000E300A42FFFE5F03EFEE43DFD33D0E0FB5007D7
:1000F3000BBB000F020236EC2CFCEF33FFEE33FE9A
:06010300ED33FD02020EC7
:1001090074F8CC6480CCC86480C8F58204604FC39D
:10011900EB9FF5F0EA9E42F0E99D42F0E89C45F03C
:10012900603C501DE5825FFFE582D313CB5BCBF4C6
:100139002B5582FB50280ABA002409B900200880EF
:100149001DE5825BFBE582D313CF5FCFF4C3132F89
:100159005582FF50090EBE00050DBD00010CC3EB11
:100169009FF5F0EA9E42F0E99D42F0E89C45F06077
:0901790007CC4820E701B3EC2299
:1001820075F020800E75F010800575F0087D007EF8
:10019200007F003392D530D503120296EC33401023
:1001A200EF33FFEE33FEED33FDEC33FCD5F0ED2201
:0E01B200E5F0247EA2D513CC92E7CDCEFF223D
:1001C000EDD2E7CD33EC3392D524814006E4FFFE37
:1001D000FDFC22FCE4CFCECDCC24E0501174FF8096
:1001E000EDC3CC13CCCD13CDCE13CECF13CF047033
:0701F000F030D5DE0202969B
:1001F700E9D2E7C933E833F892D5EDD2E7CD33EC4E
:0702070033FC5002B2D522C6
:10020E00EC30E7100FBF000C0EBE00080DBD000451
:10021E000BEB6014A2D5EB13FCED92E7FD2274FFFD
:10022E00FCFDFEFF22E480F8A2D574FF13FC7D8056
:03023E00E480EF6A
:03000000020535C1
:0C053500787FE4F6D8FD75816A02057C31
:10024100BC000BBE0029EF8DF084FFADF022E4CCA1
:10025100F875F008EF2FFFEE33FEEC33FCEE9DEC6A
:10026100984005FCEE9DFE0FD5F0E9E4CEFD22EDB0
:10027100F8F5F0EE8420D21CFEADF075F008EF2FFA
:10028100FFED33FD4007985006D5F0F222C398FDEB
:050291000FD5F0EA2288
:0E029600C3E49FFFE49EFEE49DFDE49CFC2279
:100541000202A4E493A3F8E493A34003F68001F22A
:1005510008DFF48029E493A3F85407240CC8C333BB
:10056100C4540F4420C8834004F456800146F6DF8A
:10057100E4800B01020408102040809007DAE47E39
:10058100019360BCA3FF543F30E509541FFEE4937F
:10059100A360010ECF54C025E060A840B8E493A346
:1005A100FAE493A3F8E493A3C8C582C8CAC583CA71
:1005B100F0A3C8C582C8CAC583CADFE9DEE780BE29
:0107E7000011
:00000001FF
