:100D8A004D4F4E005455450057454E0054485500A6
:100D9A00465249005341540053554E005765656BFE
:100DAA00646179005765656B656E6400444154451A
:100DBA003A0054494D453A002D003A00596561728E
:100DCA00536574202020202020004D6F6E746853D4
:100DDA0065742020200044617465536574202020C6
:100DEA0020202000486F757253657420202020202F
:100DFA0020004D696E757465536574202000536533
:100E0A00636F6E645365742020202020004461794A
:100E1A005365742020202020202020202000434CCD
:100E2A004F434B2053455400434C4F434B5F486F4D
:100E3A00757253657400434C4F434B5F4D696E7531
:100E4A00746553657400434C4F434B5F5365636F3E
:100E5A006E6453657400434C4F434B5F576F726B1C
:040E6A005365740058
:10140F00023B0000013DFF013A00013800013900A5
:0F158F00E5A0541F44A0F5A0E4F58053A01F224F
:0F159E00E5A0541F44A0F5A07580FF53A01F22A5
:10107F00E528B50B09E527B50A047F0180027F003B
:10108F00E526B50909E525B508047E0180027E0035
:10109F00EE5FFFE52AB50D09E529B50C047E018049
:1010AF00027E00EE5F604EE50F450E70047F0180FB
:1010BF00027F00D3E52C9405E52B648094805004C7
:1010CF007E0180027E00EE5F600312159EE50F64C5
:1010DF0001450E70047F0180027F00D3E52C94053B
:1010EF00E52B6480948040047E0180027E00EE5FD9
:1010FF00600312159EE50D240AFFE4350CFEEFB5D3
:0A110F002A07EEB5290312158F22FE
:1012BA00E52B706AE52C14B4070050629012D475BD
:1012CA00F003A4C58325F0C583730212E90212F163
:1012DA000212F90213010213090213110213197BF4
:1012EA00FF7A0D798A802E7BFF7A0D798E80267B94
:1012FA00FF7A0D7992801E7BFF7A0D799680167B94
:10130A00FF7A0D799A800E7BFF7A0D799E80067B93
:0F131A00FF7A0D79A27D0E7C007F0112148222D2
:1014F900E50E701FE50F14600B0470177BFF7A0D62
:1015090079A680067BFF7A0D79AE7D017C007F028A
:041519001214822204
:100C6C00E538146022147003020D7924026003022B
:100C7C000D8975B00FC2C2C2C4AFB0EF640F700360
:100C8C00020D897538012275B00FC2C2C2C4AFB053
:100C9C00EF640F7003020D7520B00375370120B19E
:100CAC000375370220B20375370320B3037537047D
:100CBC00E53724FE603C146060147003020D4C2474
:100CCC00036003020D8975B0F0D2C2D2C420C406F1
:100CDC00E4F53D020D7120C206753D01020D712037
:100CEC00B505753D02807E30B403020D89753D0358
:100CFC00807375B0F0D2C2D2C420C405753D048097
:100D0C006420C205753D05805C20B505753D0680E7
:100D1C005420B469753D07804C75B0F0D2C2D2C472
:100D2C0020C405753D08803D20C205753D09803500
:100D3C0020B505753D0A802D20B442753D0B8025EC
:100D4C0075B0F0D2C2D2C420C405753D0C801620FB
:100D5C00C205753D0D800E20B505753D0E80062033
:100D6C00B41B753D0F75380222E4F5382275B00FAF
:0D0D7C00C2C2C2C4AFB0EF640F7002F53800
:010D89002247
:10111900E53DB4100040030211B090112AF82828C7
:101129007302115A0211610211680211B002116FA2
:1011390002117602117D0211B00211840211A1027D
:1011490011A50211A90211AD02119902118B021107
:1011590092753A017FFE803D753A027FFD803675B2
:101169003A037FFB802F753A047FF78028753A058B
:101179007FEF8021753A067FDF801A753A077FBFB6
:10118900801312153DE4F53A22753A0F7FFF800569
:10119900753A137FBF0215CB753A1422753A152299
:0811A900753A1622753A17226F
:10000E00E53A12089B00410000AA01011B02019172
:10001E0003042F0404A00505110605820705F00F41
:10002E00060213067A1406E61507521607BD1700C8
:10003E000008261214D47BFF7A0D79B67D017C0060
:10004E007F011214827BFF7A0D79BC7D017C007FCB
:10005E00021214827BFF7A0D79C27D087C007F012B
:10006E001214827BFF7A0D79C27D0B7C007F011208
:10007E0014827BFF7A0D79C47D087C007F021214F6
:10008E00827BFF7A0D79C47D0B7C007F0212148275
:10009E00120E6E120FDD1212BA0208267BFF7A0DB7
:1000AE0079C67D017C007F01121482E4F530AE1119
:1000BE00EE3395E08512348E33F532F5317B027DC9
:1000CE00017F02120F35AF3D7E00EF6403701805FD
:1000DE0012E51270020511D39463E51164809480C9
:1000EE004005E4F511F512EF64074E600302082691
:1000FE00E512151270021511C3E51164809480404B
:10010E00030208267511007512630208267BFF7A1A
:10011E000D79D47D017C007F01121482E4F530AE9E
:10012E0013EE3395E08514348E33F532F5317B02C0
:10013E007D017F02120F35AF3D7E00EF6403701913
:10014E000514E51470020513D3940CE51364809422
:10015E00804006751300751401EF64074E600302AC
:10016E000826E514151470021513C3E5149401E561
:10017E001364809480400302082675130075140CD6
:10018E000208267BFF7A0D79E07D017C007F01124B
:10019E001482E4F530AE15EE3395E08516348E33C9
:1001AE00F532F5317B027D017F02120F35E53DFB05
:1001BE007A00640360030202C60516E51670020596
:1001CE0015E514640145136030E5146403451360AE
:1001DE0028E514640545136020E514640745136093
:1001EE0018E514640845136010E514640A4513609D
:1001FE0008E514640C45137013D3E516941FE5152A
:10020E006480948050030202AD0202A7E5146404D8
:10021E0045136018E514640645136010E51464096F
:10022E0045136008E514640B4513700FD3E516945F
:10023E001EE515648094804066805EE51464024578
:10024E0013705CAE11AF12FC7D04120857ED4C70AA
:10025E001DAE11AF12FC7D64120857ED4C600FD32A
:10026E00E516941DE515648094804033802BAE1105
:10027E00AF127C017D90120857ED4C700FD3E5162E
:10028E00941DE515648094804015800DD3E5169479
:10029E001CE51564809480400675150075160105E1
:1002AE001EE51E7002051DD39407E51D6480948023
:1002BE004006751D00751E01EB64074A60030208B7
:1002CE0026E516151670021515E514640145136022
:1002DE0030E514640345136028E514640545136086
:1002EE0020E514640745136018E51464084513608F
:1002FE0010E514640A45136008E514640C45137088
:10030E0026C3E5169401E515648094805006751594
:10031E000075161FD3E516941FE515648094805062
:10032E000302041B020415E514640445136018E56A
:10033E0014640645136010E514640945136008E55E
:10034E0014640B45137026C3E5169401E5156480FD
:10035E009480500675150075161ED3E516941EE58D
:10036E001564809480500302041B020415E5146486
:10037E00024513600302041BAE11AF12FC7D041282
:10038E000857ED4C7030AE11AF12FC7D6412085759
:10039E00ED4C6022C3E5169401E5156480948050FF
:1003AE000675150075161DD3E516941DE5156480AA
:1003BE00948040598051AE11AF127C017D9012088D
:1003CE0057ED4C7022C3E5169401E51564809480B8
:1003DE00500675150075161DD3E516941DE51564AA
:1003EE0080948040288020C3E5169401E515648032
:1003FE009480500675150075161CD3E516941CE5F1
:10040E0015648094804006751500751601E51E155D
:10041E001E7002151DE51E451D600302082602050D
:10042E00E87BFF7A0D79EE7D017C007F011214824C
:10043E00E4F530AE17EE3395E08518348E33F53291
:10044E00F5317B027D017F02120F35AF3D7E00EF4D
:10045E00640370180518E51870020517D39417E594
:10046E0017648094804005E4F517F518EF64074E85
:10047E006003020826E518151870021517C3E51754
:10048E0064809480400302082675170075181702C1
:10049E0008267BFF7A0D79FC7D017C007F0112140A
:1004AE0082E4F530AE19EE3395E0851A348E33F5CD
:1004BE0032F5317B027D017F02120F35AF3D7E009A
:1004CE00EF64037018051AE51A70020519D3943BF0
:1004DE00E519648094804005E4F519F51AEF640778
:1004EE004E6003020826E51A151A70021519C3E5A7
:1004FE0019648094804003020826751900751A3B12
:10050E000208267BFF7A0E79087D017C007F01129E
:10051E001482E4F530AE1BEE3395E0851C348E3339
:10052E00F532F5317B027D017F02120F35AF3D7E34
:10053E0000EF64037018051CE51C7002051BD394B4
:10054E003BE51B648094804005E4F51BF51CEF64CD
:10055E00074E6003020826E51C151C7002151BC30E
:10056E00E51B648094804003020826751B00751CF1
:10057E003B0208267BFF7A0E79177D017C007F01F6
:10058E00121482E4F530AE1DEE3395E0851E348EE6
:10059E0033F532F5317B027D017F02120F35AF3D0F
:1005AE007E00EF64037019051EE51E7002051DD353
:1005BE009407E51D648094804006751D00751E012C
:1005CE00EF64074E6003020826E51E151E70021525
:1005DE001DE51E451D6003020826F51D751E07024A
:1005EE00082612153D1214AF1214D4120B28E4F57E
:1005FE003A0208267BFF7A0E79287D017C007F0166
:10060E001214821214F9E4F530AE08EE3395E0853B
:10061E0009348E33F532F5317B027D097F02120FDC
:10062E00357B3A7D0B7F021213CDE4F530AE0AEE28
:10063E003395E0850B348E33F532F5317B027D0C2C
:10064E007F02120F357B3A7D0E7F021213CDE4F539
:10065E0030AE0CEE3395E0850D348E33F532F53138
:10066E007B027D0F7F02120F350208267BFF7A0E6A
:10067E0079327D017C007F01121482E4F530AE08E0
:10068E00EE3395E08509348E33F532F5317B027DFC
:10069E00017F02120F35E53DFB7A0064037014E50D
:1006AE00092401FFE43508FE7C007D181208578CE2
:1006BE00088D09EB64074A6003020826E509450820
:1006CE007005FE7F17800AE50924FFFFE50834FF59
:1006DE00FE8E088F090208267BFF7A0E79407D0177
:1006EE007C007F01121482E4F530AE0AEE3395E001
:1006FE00850B348E33F532F5317B027D017F02128C
:10070E000F35E53DFB7A0064037014E50B2401FF01
:10071E00E4350AFE7C007D3C1208578C0A8D0BEBEB
:10072E0064074A6003020826E50B450A7005FE7F42
:10073E003B800AE50B24FFFFE50A34FFFE8E0A8F8D
:10074E000B0208267BFF7A0E79507D017C007F011B
:10075E00121482E4F530AE0CEE3395E0850D348E36
:10076E0033F532F5317B027D017F02120F35E53D07
:10077E00FB7A0064037014E50D2401FFE4350CFED2
:10078E007C007D3C1208578C0C8D0DEB64074A6083
:10079E0003020826E50D450C7005FE7F3B800AE539
:1007AE000D24FFFFE50C34FFFE8E0C8F0D80697B50
:1007BE00FF7A0E79607D017C007F01121482E4F5D0
:1007CE0030AE0EEE3395E0850F348E33F532F531C3
:1007DE007B027D017F02120F35AF3D7E00EF640379
:1007EE007018050FE50F7002050ED39401E50E6427
:1007FE008094804005E4F50EF50FEF64074E7018F7
:10080E00E50F150F7002150EE50FB4FF0BE50EB4D4
:0C081E00FF06750E00750F01753DFF22EE
:03000B0002156972
:02156900C0E0E0
:0F156B00E539640A7007F53B753C01F539053920
:03157A00D0E0328C
:10155400438E805389F0758A20758CD1C28DD28CCC
:05156400D2A9D2AF2264
:10144D0012158F12000312153D1215541209E47F67
:10145D00FF1215CB12107FE53C453B6013E4F53BC5
:10146D00F53C120C6CE53DF4600612153D12111998
:05147D0012000E80DFEB
:10141F000E110018000B0006000A00000000000368
:10142F000E1F0018000B0006000A0000000000034A
:0A143F000808000C00000000000087
:05000300C293C2972228
:10123D00C454F048FA7C007D0A120857ED2BFDECE2
:04124D003AFC7F8C5C
:061251008C2D8D2EAB0771
:10125700D293E4FDEDC394087480948050227E00FD
:101267007401A805088005C333CE33CED8F9FFEB48
:10127700F582EF558224FF92A3D297C2970D80D4AF
:10128700E4FDEDC394087480948050247E007401BB
:10129700A805088005C333CE33CED8F9FFE52D5E08
:1012A700FEE52E5F4E24FF92A3D297C2970D80D200
:0212B700C293E0
:0112B9002212
:02132900AD070E
:10132B00E4F9430501D293FBEBC3940874809480DA
:10133B0050227E007401A803088005C333CE33CE40
:10134B00D8F9FFEDF582EF558224FF92A3C297D215
:10135B00970B80D4E4FBEBC39408748094805017F4
:10136B00D297C29730A30DA8037401088002C33330
:0D137B00D8FC42010B80DFC293C2A3AF017A
:011388002242
:1014AF00E4FFFEEF25E02411F8E6FC08E6FDEF254A
:1014BF00E0241FF8A60408A6050FBF00010EEF6475
:0414CF00074E70DF75
:0114D30022F6
:1014D400E4FFFEEF25E0241FF8E6FC08E6FDEF2517
:1014E400E02411F8A60408A6050FBF00010EEF645E
:0414F400074E70DF50
:0114F80022D1
:1009E400E4FDFC7F8E121251AE1FAF207D0A120867
:1009F40057EFC4F8540FC868FBEEAE1FAF201212B5
:100A04003DAE21AF227C007D0A120857EFC4F85492
:100A14000FC868FBEEC454F048FAAE21AF227C0044
:100A24007D0A120857ED2BFDEC3AFC7F8812125117
:100A3400AE23AF247C007D0A120857EFC4F8540F8C
:100A4400C868FBEEC454F048FAAE23AF247C007DA2
:100A54000A120857ED2BFDEC3AFC7F86121251AEB8
:100A640025AF267C007D0A120857EFC4F8540FC83E
:100A740068FBEEC454F048FAAE25AF267C007D0A2C
:100A8400120857ED2BFDEC3AFC7F84121251AE276D
:100A9400AF287C007D0A120857EFC4F8540FC868C9
:100AA400FBEEC454F048FAAE27AF287C007D0A124E
:100AB4000857ED2BFDEC3AFC7F82121251AE29AFA0
:100AC4002A7C007D0A120857EFC4F8540FC868FB4B
:100AD400EEC454F048FAAE29AF2A7C007D0A12080D
:100AE40057ED2BFDEC3AFC7F80121251AE2BAF2C4C
:100AF4007C007D0A120857EFC4F8540FC868FBEE57
:100B0400C454F048FAAE2BAF2C7C007D0A1208576F
:100B1400ED2BFDEC3AFC7F8A1212517D807C007F24
:040B24008E021251DA
:100B2800E4FDFC7F8E121251AE11AF127D0A12083D
:100B380057EFC4F8540FC868FBEEAE11AF1212128B
:100B48003DAE13AF147C007D0A120857EFC4F85469
:100B58000FC868FBEEC454F048FAAE13AF147C001B
:100B68007D0A120857ED2BFDEC3AFC7F88121251D2
:100B7800AE15AF167C007D0A120857EFC4F8540F63
:100B8800C868FBEEC454F048FAAE15AF167C007D79
:100B98000A120857ED2BFDEC3AFC7F86121251AE73
:100BA80017AF187C007D0A120857EFC4F8540FC815
:100BB80068FBEEC454F048FAAE17AF187C007D0A03
:100BC800120857ED2BFDEC3AFC7F84121251AE1936
:100BD800AF1A7C007D0A120857EFC4F8540FC86892
:100BE800FBEEC454F048FAAE19AF1A7C007D0A1225
:100BF8000857ED2BFDEC3AFC7F82121251AE1BAF69
:100C08001C7C007D0A120857EFC4F8540FC868FB13
:100C1800EEC454F048FAAE1BAF1C7C007D0A1208E3
:100C280057ED2BFDEC3AFC7F80121251AE1DAF1E22
:100C38007C007D0A120857EFC4F8540FC868FBEE11
:100C4800C454F048FAAE1DAF1E7C007D0A12085746
:100C5800ED2BFDEC3AFC7F8A1212517D807C007FDF
:040C68008E02125195
:100E6E007F8C121329AD07EDC4540F75F00AA4FF41
:100E7E00AEF0ED540F7C002FF520EC3EF51F7F8871
:100E8E00121329AD07EDC4540F75F00AA4FFAEF08E
:100E9E00ED540F2FF522EC3EF5217F86121329AD6E
:100EAE0007EDC4540F75F00AA4FFAEF0ED540F2FEA
:100EBE00F524EC3EF5237F84121329AD07EDC454BF
:100ECE000F75F00AA4FFAEF0ED540F2FF526EC3E91
:100EDE00F5257F82121329AD07EDC4540F75F00A64
:100EEE00A4FFAEF0ED540F2FF528EC3EF5277F80D2
:100EFE00121329AD07EDC4540F75F00AA4FFAEF01E
:100F0E00ED540F2FF52AEC3EF5297F8A121329ADE9
:100F1E0007EDC4540F75F00AA4FFAEF0ED540F2F79
:060F2E00F52CEC3EF52B52
:010F3400229A
:100FDD00E4F530AE1FEE3395E08520348E33F532D7
:100FED00F5317B027D067F01120F35E4F530AE2120
:100FFD00EE3395E08522348E33F532F5317B027D6B
:10100D00097F01120F35E4F530AE23EE3395E085FF
:10101D0024348E33F532F5317B027D0C7F01120FB6
:10102D0035E4F530AE25EE3395E08526348E33F577
:10103D0032F5317B027D067F02120F35E4F530AEBD
:10104D0027EE3395E08528348E33F532F5317B026A
:10105D007D097F02120F35E4F530AE29EE3395E0B0
:10106D00852A348E33F532F5317B027D0C7F0202F9
:02107D000F352D
:03144900013E2839
:0615D900C2A1D2928E8037
:0415DF007F0ADFFEA2
:0115E30022E5
:10157D007580FFC2A0D2A1D2921215DFC292E58072
:02158D00332207
:0F15AD00AE0712157D40FBC2A01215D9C29222C3
:0F15BC00AE0712157D40FBD2A01215D9C29222A4
:02151D008F2D10
:10151F00E4F52EF52EC3E52E941074809480500DB3
:0D152F007B20AD2DAF2E1213CD052E80E8D0
:01153C00228C
:0A15E400E4FF12151D7F0102151D22
:10153D007F381215AD7F0C1215AD7F061215AD7FDC
:07154D00011215AD0215E4C7
:0213CD00AE0769
:1013CF001E1DEDC3941074809480400774F02DFDA2
:1013DF000E80EFEEF582758300C3940274809480C3
:1013EF0040041E1E80EDE58245837004AC05800429
:1013FF00ED2440FCEC2480FF1215ADAF030215BCA9
:0A1482008F2D8D2E8B2F8A308931BB
:10148C00E4F532AB2FAA30A9318532827583001274
:10149C00082AFB600DAD2EAF2D1213CD052E053293
:0214AC0080E1DD
:0114AE00221B
:060F35008F2D8D2E8B2F85
:100F3B00E4F536E5306004052F80021530AE33AC96
:100F4B0031EC3350217B2DAD2EAF2D1213CD052F50
:100F5B00AF34AE33AD32AC3112088D8F348E338D4E
:100F6B00328C31753601E52F2406F535C3E52F9507
:100F7B0036605CAE33AC31EC334002152FE530609C
:100F8B003EE52E252FFDC005E47B0AFAF9F8AF34B8
:100F9B00AE33AD32AC31121389EB2430FBD005AF3D
:100FAB002D1213CDAF34AE33AD32AC31E47B0AFA34
:100FBB00F9F81213898F348E338D328C31800CE516
:100FCB002E252FFD7B2EAF2D1213CD1530809DAF0F
:010FDB0035E0
:010FDC0022F2
:0E15CB00E5A0541F4480F5A08F8053A01F227E
:030000000211B139
:0C11B100787FE4F6D8FD75813E0211F84D
:10082A00BB010CE58229F582E5833AF583E0225083
:10083A0006E92582F8E622BBFE06E92582F8E222CD
:0D084A00E58229F582E5833AF583E49322E7
:10085700C2D5EC30E709B2D5E4C39DFDE49CFCEEBC
:1008670030E715B2D5E4C39FFFE49EFE1208C1C36B
:10087700E49DFDE49CFC80031208C130D507C3E466
:060887009FFFE49EFE222B
:10138900C2D5E830E70FB2D5E4C39BFBE49AFAE48F
:1013990099F9E498F8EC30E717B2D51213BF12099E
:1013A90052E4C39BFBE49AFAE499F9E498F88003C0
:1013B90012095230D50DE4C39FFFE49EFEE49DFD62
:0413C900E49CFC2282
:0E088D00C3E49FFFE49EFEE49DFDE49CFC227C
:10089B00D083D082F8E4937012740193700DA3A3EC
:1008AB0093F8740193F5828883E473740293686000
:0608BB00EFA3A3A380DF00
:1011BD0002144DE493A3F8E493A34003F68001F2E7
:1011CD0008DFF48029E493A3F85407240CC8C33333
:1011DD00C4540F4420C8834004F456800146F6DF02
:1011ED00E4800B010204081020408090140FE47E6F
:1011FD00019360BCA3FF543F30E509541FFEE493F7
:10120D00A360010ECF54C025E060A840B8E493A3BD
:10121D00FAE493A3F8E493A3C8C582C8CAC583CAE8
:10122D00F0A3C8C582C8CAC583CADFE9DEE780BEA0
:01144C00009F
:1008C100BC000BBE0029EF8DF084FFADF022E4CC1B
:1008D100F875F008EF2FFFEE33FEEC33FCEE9DECE4
:1008E100984005FCEE9DFE0FD5F0E9E4CEFD22ED2A
:1008F100F8F5F0EE8420D21CFEADF075F008EF2F74
:10090100FFED33FD4007985006D5F0F222C398FD64
:050911000FD5F0EA2201
:1009160075F008758200EF2FFFEE33FECD33CDCC98
:1009260033CCC58233C5829BED9AEC99E58298401B
:100936000CF582EE9BFEED9AFDEC99FC0FD5F0D6F8
:10094600E4CEFBE4CDFAE4CCF9A88222B800C1B922
:100956000059BA002DEC8BF084CFCECDFCE5F0CB60
:10096600F97818EF2FFFEE33FEED33FDEC33FCEB99
:1009760033FB10D703994004EB99FB0FD8E5E4F954
:10098600FA227818EF2FFFEE33FEED33FDEC33FC41
:10099600C933C910D7059BE99A4007EC9BFCE99A35
:1009A600F90FD8E0E4C9FAE4CCFB2275F010EF2F7A
:1009B600FFEE33FEED33FDCC33CCC833C810D7077A
:1009C6009BEC9AE899400AED9BFDEC9AFCE899F8B5
:0E09D6000FD5F0DAE4CDFBE4CCFAE4C8F92248
:00000001FF
