:030000000209658D
:0C096500787FE4F6D8FD7581420209ACF1
:0F0C7400D2B1D2B0120B71C2B1120B71C2B02249
:0C0C9E00C2B1D2B0120B71D2B1020B71C6
:0E0C8300A20092B1D2B0120B71C2B0020B717E
:0D0C9100D2B0120B71A2B1C2B0120B7122D1
:020B4E008F39DD
:100B5000E4F53AE53925E0F53992B1D2B0120B71DE
:100B6000C2B0120B71053AE53AC3940840E5020C95
:010B700091F3
:100B2500E4F539D2B1F538E53925E0F539D2B01219
:100B35000B71A2B1E4334239C2B0120B710538E52D
:080B450038C3940840E1AF3908
:010B4D002285
:100C20008F378D38120C747F1A120B4EAF37120BA0
:090C30004EAF38120B4E020C9E6F
:100AE200120C747F1A120B4EE4FF120B4E120C748E
:100AF2007F1B120B4EE4F537120B25740D2537F8C8
:100B0200A607E537B40504D2008002C200120C83A6
:100B12000537E537C3940640DF120C9E7F057E0041
:030B2200020BB112
:100BCF007D0D7F09120C207D017F0B120C207D40C3
:0C0BDF007F20120C207D017F21020C20E1
:100B71000000000000000000000000000000000074
:100B81000000000000000000000000000000000064
:010B91002241
:100BB100D3EF9400EE940040147D797C00ED1D701C
:0D0BC100011CED4C70F7EF1F70E61E80E385
:010BCE002204
:100C4E007580FFC2A5D2A600D2A70000E58020E7DE
:040C5E00FBC2A7220C
:100C3900ED6003120C4EC2A5C2A6008F8000D2A798
:050C49000000C2A7221B
:100C6200120C4ED2A5C2A6008F8000D2A70000C2ED
:020C7200A722B7
:100BEB007D017F38120C397F08120C397F01120CF2
:0B0BFB00397F06120C397F0C020C3908
:100B9200AE07AC0353050153060FED600343064055
:0F0BA200430680AF06E4FD120C39AF04020C626B
:100C0600010C00010A00010900010800010B00089F
:090C16000D0000000000000000C8
:1009F100AB07AA067C277D10120426EF2430F50BE5
:100A01007C277D10AF03AE02120426AA04AB057C3D
:100A1100037DE8AF03AE02120426EF2430F5087C13
:100A2100037DE8AF03AE02120426AA04AB057C00E5
:100A31007D64AF03AE02120426EF2430F5097C0079
:100A41007D64AF03AE02120426AA04AB057C007DCF
:100A51000AAF03AE02120426EF2430F50A7C007DB2
:0E0A61000AAF03AE02120426ED2430F50C227B
:1004A900E4F521F522F523F524F525F526F52AF5B8
:1004B90029F528F527F52EF52DF52CF52BF532F52F
:1004C90031F530F52F120BEB120BCF7B5AE4FD7F80
:1004D90002120B927B68E4FD7F03120B927B69E4A5
:1004E900FD7F04120B927B4EE4FD7F06120B927B7B
:1004F90061E4FD7F07120B927B6EE4FD7F08120B0E
:10050900927B5AE4FD7F0A120B927B68E4FD7F0B14
:10051900120B927B65E4FD7F0C120B927B6EE4FD5E
:100529007F0D120B927B457D017F04120B927B3A62
:100539007D017F05120B927B2E7D017F09120B92A3
:100549007F2C7E01120BB1120AE2E50EF521E50DB1
:10055900F522E510F523E50FF524E512F525E5115A
:10056900F526D3E52294FFE521648094FF40080530
:1005790022E52270020521D3E52494FFE523648056
:1005890094FF40080524E52470020523D3E5269449
:10059900FFE525648094FF40080526E526700205DD
:1005A90025AC23AD24EC12027FC004C005C006C0EF
:1005B90007AC21AD22EC12027F8F3E8E3D8D3C8C23
:1005C9003BD007D006D005D004120A6F7BE07A2E03
:1005D900796578421200FBE4FBFA7934784312001A
:1005E9000A8F2A8E298D288C27E4FBFA79207841F5
:1005F9001200FB8F2A8E298D288C278F368E358DF8
:10060900348C331202B81209F17B3A7D017F05124D
:100619000B92AB087D017F06120B92AB097D017F1E
:1006290007120B92AB0A7D017F08120B927B2E7D7C
:10063900017F09120B92AB0C7D017F0A120B927F8D
:10064900007E407D537C45AB36AA35A934A83312C8
:1006590002015016E4FFFE7D5C7C43AB36AA35A946
:1006690034A833120201600250127B4E7D017F03D0
:10067900120B927B207D017F04120B92E4FFFE7D19
:10068900667C43AB36AA35A934A833120201402946
:100699007F007E807D277C44AB36AA35A934A833F8
:1006A900120201600250127B457D017F03120B92F9
:1006B9007B4E7D017F04120B92E4FFFE7D2A7C4470
:1006C900AB36AA35A934A8331202014028E4FFFE4B
:1006D9007D8C7C44AB36AA35A934A833120201605B
:1006E9000250127B457D017F03120B927B207D0115
:1006F9007F04120B927F007E407D8D7C44AB36AA2D
:1007090035A934A83312020140297F007E407DC4F7
:100719007C44AB36AA35A934A833120201600250D1
:10072900127B457D017F03120B927B537D017F0470
:10073900120B927F007E807DC57C44AB36AA35A919
:1007490034A83312020140297F007E407DFB7C449E
:10075900AB36AA35A934A833120201600250127BC4
:10076900537D017F03120B927B207D017F04120BC5
:10077900927F007E807DFC7C44AB36AA35A934A8E3
:100789003312020140297F007EC07D197C45AB36BA
:10079900AA35A934A833120201600250127B577D91
:1007A900017F03120B927B537D017F04120B927F11
:1007B900007E607D1A7C45AB36AA35A934A8331270
:1007C900020140297F007EE07D357C45AB36AA35A4
:1007D900A934A833120201600250127B577D017FB0
:1007E90003120B927B207D017F04120B927F007E06
:1007F900807D367C45AB36AA35A934A8331202016F
:100809004028E4FFFE7D527C45AB36AA35A934A8C1
:1008190033120201600250127B577D017F03120BD4
:10082900927B4E7D017F04120B927FF47E01120BA5
:04083900B1020550B3
:10000300020324E86480F8E933E83360110460F004
:10001300ED33EC337009E8FCE9FDEAFEEBFF220463
:1000230060DED3EB9FEA9EE99DE8C2E78CF0C2F75E
:1000330095F0400CE8CCF8E9CDF9EACEFAEBCFFB2A
:100043001202EF85D0F05804700320D5B3E8047092
:10005300075002B2D502032E92D5EC0460F7E4CC2C
:10006300C0E0C398F8603B94186008400DD0E0FBF3
:10007300020306E4FBFAC9FC8028E830E406E4C97D
:10008300FBE4CAFCE830E305E4C9CACBFCE8540747
:100093006010F8C3E913F9EA13FAEB13FBEC13FC52
:1000A300D8F130F52FC3E49CFCEF9BFFEE9AFEEDF5
:1000B30099FDD0E0FBEF4E4D4C701222DB0302039F
:1000C3002BEC2CFCEF33FFEE33FEED33FDED30E78D
:1000D300EB020306EF2BFFEE3AFEED39FDD0E0FB1A
:1000E30050130BBB000302032EED13FDEE13FEEFC3
:0800F30013FFEC13FC020306ED
:1000FB00EC4D6011E8497017ED33EC3304600DE4FF
:10010B00FCFFFEFD22E933E8330470F802032412EE
:10011B0002EF58046009E4CC2481500628500902F0
:10012B00032E28400302032BC0E0EB4A7044B98036
:10013B0006D0E0FB02031AEF4E701CBD8008EBFFEC
:10014B00EAFEE9FD80EBE98DF0A4FEE5F00201E4A7
:10015B00E9CDF9EAFEEBFFEF89F0A4FCE5F0CE89DF
:10016B00F0A42EFFE435F0CD89F0A42DFEE435F09C
:10017B008067EF4E7005BD80D780C3EF8BF0A4ACCA
:10018B00F0EE8BF0A42CFCE435F0F8EF8AF0A42C05
:10019B00E5F038FCE433CB8DF0A42CFCE5F03BF818
:1001AB00EE8AF0A42CFCE5F038F8E433CF89F0A408
:1001BB002CFCE5F038CF3400CE89F0A42FFFE5F00E
:1001CB003EFEE433C98DF0A42EFEE5F039CD8AF066
:1001DB00A42FFFE5F03EFEE43DFD33D0E0FB5007DE
:1001EB000BBB000F02032EEC2CFCEF33FFEE33FEA8
:0601FB00ED33FD020306D6
:1002010074F8CC6480CCC86480C8F58204604FC3A4
:10021100EB9FF5F0EA9E42F0E99D42F0E89C45F043
:10022100603C501DE5825FFFE582D313CB5BCBF4CD
:100231002B5582FB50280ABA002409B900200880F6
:100241001DE5825BFBE582D313CF5FCFF4C3132F90
:100251005582FF50090EBE00050DBD00010CC3EB18
:100261009FF5F0EA9E42F0E99D42F0E89C45F0607E
:0902710007CC4820E701B3EC22A0
:10027A0075F020800E75F010800575F0087D007EFF
:10028A00007F003392D530D50312047BEC33401043
:10029A00EF33FFEE33FEED33FDEC33FCD5F0ED2208
:0E02AA00E5F0247EA2D513CC92E7CDCEFF2244
:1002B800EDD2E7CD33EC3392D524814006E4FFFE3E
:1002C800FDFC22FCE4CFCECDCC24E0501174FF809D
:1002D800EDC3CC13CCCD13CDCE13CECF13CF04703A
:0702E800F030D5DE02047BBB
:100A6F008F3A8E398D388C37AB3EAA3DA93CA83BC7
:100A7F0012033C12085D8F3A8E398D388C37E53B67
:100A8F0030E747ECC0E0EDC0E0EEC0E0EFC0E0E4DF
:100A9F00FFFEFDFCAB3AAA39A938A8371202017B39
:100AAF00DB600250087A0F7949784080067A0F7917
:100ABF004978C0D0E0FFD0E0FED0E0FDD0E0FC12DE
:100ACF00000A8F3A8E398D388C37AF3AAE39AD3840
:030ADF00AC37220F
:1002EF00E9D2E7C933E833F892D5EDD2E7CD33EC55
:0702FF0033FC5002B2D522CE
:10030600EC30E7100FBF000C0EBE00080DBD000458
:100316000BEB6014A2D5EB13FCED92E7FD2274FF04
:10032600FCFDFEFF22E480F8A2D574FF13FC7D805D
:03033600E480EF71
:1003390002032EEC5D046005E859047003020324EE
:100349001202EF580460F6EC4860F2EC7004FDFE0E
:10035900FF22C860DB2481C85009C3986002500697
:1003690002032B9850CAF582E9294B4A7005AB82E2
:1003790002031A75F0007C1A7880C3EF9BEE9AEDA0
:1003890099400DC3EF9BFFEE9AFEED99FDE842F00F
:10039900DC23ACF0D0E0FFD0E0FED0E0FDAB822062
:1003A900E7101BEB60BAEC2CFCEF33FFEE33FEEDEC
:1003B90033FD020306E803F830E705C0F075F000E5
:1003C900EF2FFFEE33FEED33FD40B830E7C280AAD0
:10083D00BE1249253E4CCCCDBEAAAAAB3F800000CE
:10084D003E7ADBB03EED63383F24BC7D3F490FDB84
:10085D00ED33ECC2E7CC339200B4FF13ED547F605F
:10086D00030203247FDB7E0F7DC97C3F020958C242
:10087D0001C3947F401E7007EDD2E794904015EFB1
:10088D00FBEEFAEDF9ECF87F007E007D807C3F12E7
:10089D00033CD201ED33EC33248430E705E4C0E0B2
:1008AD00806D04FAEDD2E754F0C333DAFD5407340A
:1008BD00002323C0E0CCC0E0F8EDC0E0F9EEC0E0CD
:1008CD00FAEFC0E0FBE4120284EC24FEFC8C3F8DB9
:1008DD00408E418F421200FB7B007A007980783F79
:1008ED0012000AECC53FB2E7FCEDC540FDEEC54177
:1008FD00FEEFC542FFD0E0FBD0E0FAD0E0F9D0E04A
:10090D00F812000AA83FA940AA41AB4212033C8C41
:10091D003F8D408E418F4290083D74031203D9A83C
:10092D003FA940AA41AB421200FBD0E0600F244921
:10093D00F582E43408F58312049912000A30010B94
:10094D007BDB7A0F79C978BF12000AED33EC336087
:08095D0006ECA20092E7FC2267
:1003D900C0E0EFFBEEFAEDF9ECF81200FBD0E0F526
:1003E900F0EFFBEEFAEDF9ECF8120489A3A3A3A34D
:1003F900E8C0E0E9C0E0EAC0E0EBC0E0C0F012000C
:10040900FB120499A3A3A3A312000AD0F0D0E0FB26
:0D041900D0E0FAD0E0F9D0E0F8D5F0D42220
:100971000204A9E493A3F8E493A34003F68001F2EF
:1009810008DFF48029E493A3F85407240CC8C33387
:10099100C4540F4420C8834004F456800146F6DF56
:1009A100E4800B0102040810204080900C06E47ED4
:1009B100019360BCA3FF543F30E509541FFEE4934B
:1009C100A360010ECF54C025E060A840B8E493A312
:1009D100FAE493A3F8E493A3C8C582C8CAC583CA3D
:1009E100F0A3C8C582C8CAC583CADFE9DEE780BEF5
:010C1F0000D4
:10042600BC000BBE0029EF8DF084FFADF022E4CCBA
:10043600F875F008EF2FFFEE33FEEC33FCEE9DEC83
:10044600984005FCEE9DFE0FD5F0E9E4CEFD22EDC9
:10045600F8F5F0EE8420D21CFEADF075F008EF2F13
:10046600FFED33FD4007985006D5F0F222C398FD04
:050476000FD5F0EA22A1
:0E047B00C3E49FFFE49EFEE49DFDE49CFC2292
:10048900E493FC740193FD740293FE740393FF22B9
:10049900E493F8740193F9740293FA740393FB22B9
:00000001FF
