:030000000204D423
:0C04D400787FE4F6D8FD75815F02051BFF
:10084B00C0F9A4B0999282F88090C0F9A4B09992A3
:05085B0082F88090FF0F
:10073B000448EFDFBF7F08210A0A0A0A0A000000FB
:0F074B00012900014E1E014F1E014D00014C00FF
:0808BA007F6C7E91DEFEDFFC85
:0108C2002213
:05000300007F19DFFE83
:0100080022D5
:0808C3007F367EC7DEFEDFFC7C
:0108CB00220A
:0C08A3007F147E147DF8DDFEDEFADFF627
:0108AF002226
:10087400AD071208C3C2A1C2A0D2928D80C2922237
:10088400AD071208C3C2A1D2A0D2928D80C2922217
:100860007F381208747F011208747F061208747FA3
:040870000C020874FA
:03000B000208CC1C
:0908CC00758CFF758AFEB2B7328B
:03000B0002079653
:10079600C0E0C0D0758CF8758A300546E546B4329F
:0B07A60005D200754600D0D0D0E03234
:1006A4001206F37FCC12075B7F4412075B1206F33A
:1006B4007FCC12075B7FBE12075B1208018F091201
:1006C4000801EFFEE509FF7C007D0A1202CBAC06AF
:1006D400AD07E4120211E4FBFA7980783D120106B9
:0E06E4007BCD7ACC794C783D12001512024A7B
:0106F20022E5
:1007B1008F091208947F9012071A120833AF091299
:0B07C100071A1208331208B0020003F0
:1007CC001208947F9112071A1208331207798F09B5
:0A07DC00C20112081B1208B0AF0999
:0107E60022F0
:10034000800D1206A4EF653D7003EE653C6015124A
:1003500006A48E3C8F3D80EA1207CCEF653B70020D
:10036000E53A600A1207CC753A008F3B80EAE54D0A
:10037000600302040E752A54752B20AE3CAF3DFC81
:100380007D641202DD7C007D0A1202DDED2430F571
:100390002CAE3CAF3D7C007D0A1202DD7C007D0A64
:1003A0001202DDED2430F52D752E2EAE3CAF3D7CD6
:1003B000007D0A1202DDED2430F52F7530DF753136
:1003C0004375322075334E753420AE3AAF3B7C0016
:1003D0007D641202DD7C007D0A1202DDED2430F521
:1003E00035AE3AAF3B7C007D0A1202DD7C007D0A0F
:1003F0001202DDED2430F53675372EAE3AAF3B7C78
:10040000007D0A1202DDED2430F538753920E54D06
:1004100064017030752A20752B20752C20752D20D5
:10042000752E20752F20753020753120753220757E
:100430003320753420753520753620753720753892
:1004400020753920AE3CAF3D7C007D641202DD7C1E
:10045000007D0A1202DDED75F00AA4FBAE3CAF3D53
:100460007C007D0A1202DD7C007D0A1202DDEB2D8C
:10047000FBAE3AAF3B7C007D641202DD7C007D0A5E
:100480001202DDED75F00AA4FAAE3AAF3B7C007DB6
:100490000A1202DD7C007D0A1202DDEA2DFFEBC3A9
:1004A000954E5006EFC3954F401AD286D284E5A0F0
:1004B000541F44A0F5A053A01FE4F580E5A0541FED
:1004C0004480800AC286C284E5A0541F44A0F5A0DF
:0304D00053A01F17
:0104D3002206
:10064F00E54D705075505475514D75524175535855
:10065F00755420E54E75F00A842430F555E54E7536
:10066F00F00A84E5F02430F55675572075584E750D
:10067F00594D755A41755B58755C20E54F75F00AF9
:10068F00842430F55DE54F75F00A84E5F02430F5EC
:05069F005E755F2022E2
:1005E00020B0131208BA20B00A054DE54DB402033D
:1005F000E4F54D30B0FD20B1131208BA20B10A0560
:100600004CE54CB40203E4F54C30B0FD20B31E12AF
:1006100008BA20B315E54CB40102154FE54C700A39
:10062000154EE54EB4FF03E4F54E30B3FD20B21E87
:100630001208BA20B218E54CB4010A054FE54EB4D1
:0F0640006303754F63E54C7002054E30B2FD2227
:10056000E4F50875A0A0F580F5A075A0807580FF62
:10057000F5A075A0E07580FFF5A0120860758901EF
:10058000C2B7758CFF758AFED2AFD2A9D28C30006B
:100590000FC2007F031207B11207CC753A008F3BE0
:1005A0001203407F80120874E4FC742A2CF8E6FFE2
:1005B0001208840CBC10F37FC012087412064FE4BA
:1005C000FC74502CF8E6FF1208840CBC10F31205E2
:1005D000E0D28030A0B81208A330A0B2C28080AEB2
:0407E7007F057E000C
:1007EB00EF1FAA0670011E4A600BE4FDEDC3940CCB
:0507FB0050EE0D80F737
:0108000022D5
:02075B00A907EC
:10075D00E4FBC294E91392941207E7D294E9C31310
:0C076D00F90BBB08ED7F057E000207EBD6
:10080100E4FBC294ECC313FCD29430940343048000
:090811001207E70BBB08EBAF0472
:01081A0022BB
:1006F300C201D2947F0C7E001207EBC2947F507E1E
:10070300001207EBD2947F0A7E001207EBA29492A9
:06071300011207E7A2013C
:0107190022BD
:0508D500007F0BDFFEB7
:0108DA0022FB
:0F089400D2A1D2A01208D5C2A11208D5C2A022AB
:0A08B000C2A1D2A01208D5D2A122E5
:10081B00300104C2A18002D2A11208D5D2A01208C5
:08082B00D5C2A0D2A10208D53C
:10083300D2A11208D5D2A01208D530A107C2A012A6
:0808430008B0C322C2A0D322B9
:02071A00AE0728
:10071C00E4FDEE30E704D2A18002C2A11208D5D2CA
:0E072C00A0EE25E0FE1208D5C2A00DBD08E427
:01073A00229C
:10077900E4FDD2A01208D5EE25E0FE30A103430620
:0C07890001C2A01208D50DBD08E8AF06A3
:010795002241
:10000E000202B6E86480F8E933E83360110460F068
:10001E00ED33EC337009E8FCE9FDEAFEEBFF220458
:10002E0060DED3EB9FEA9EE99DE8C2E78CF0C2F753
:10003E0095F0400CE8CCF8E9CDF9EACEFAEBCFFB1F
:10004E0012028185D0F05804700320D5B3E80470F5
:10005E00075002B2D50202C092D5EC0460F7E4CC90
:10006E00C0E0C398F8603B94186008400DD0E0FBE8
:10007E00020298E4FBFAC9FC8028E830E406E4C9E1
:10008E00FBE4CAFCE830E305E4C9CACBFCE854073C
:10009E006010F8C3E913F9EA13FAEB13FBEC13FC47
:1000AE00D8F130F52FC3E49CFCEF9BFFEE9AFEEDEA
:1000BE0099FDD0E0FBEF4E4D4C701222DB03020295
:1000CE00BDEC2CFCEF33FFEE33FEED33FDED30E7F0
:1000DE00EB020298EF2BFFEE3AFEED39FDD0E0FB7E
:1000EE0050130BBB00030202C0ED13FDEE13FEEF27
:0800FE0013FFEC13FC02029851
:10010600EC4D6011E8497017ED33EC3304600DE4F3
:10011600FCFFFEFD22E933E8330470F80202B61252
:10012600028158046009E4CC248150062850090253
:1001360002C02840030202BDC0E0EB4A7044B98009
:1001460006D0E0FB0202ACEF4E701CBD8008EBFF50
:10015600EAFEE9FD80EBE98DF0A4FEE5F00201EF91
:10016600E9CDF9EAFEEBFFEF89F0A4FCE5F0CE89D4
:10017600F0A42EFFE435F0CD89F0A42DFEE435F091
:100186008067EF4E7005BD80D780C3EF8BF0A4ACBF
:10019600F0EE8BF0A42CFCE435F0F8EF8AF0A42CFA
:1001A600E5F038FCE433CB8DF0A42CFCE5F03BF80D
:1001B600EE8AF0A42CFCE5F038F8E433CF89F0A4FD
:1001C6002CFCE5F038CF3400CE89F0A42FFFE5F003
:1001D6003EFEE433C98DF0A42EFEE5F039CD8AF05B
:1001E600A42FFFE5F03EFEE43DFD33D0E0FB5007D3
:1001F6000BBB000F0202C0EC2CFCEF33FFEE33FE0C
:06020600ED33FD02029839
:10020C0075F020800E75F010800575F0087D007E6D
:10021C00007F003392D530D503120332EC334010FB
:10022C00EF33FFEE33FEED33FDEC33FCD5F0ED2276
:0E023C00E5F0247EA2D513CC92E7CDCEFF22B2
:10024A00EDD2E7CD33EC3392D524814006E4FFFEAC
:10025A00FDFC22FCE4CFCECDCC24E0501174FF800B
:10026A00EDC3CC13CCCD13CDCE13CECF13CF0470A8
:07027A00F030D5DE02033273
:10028100E9D2E7C933E833F892D5EDD2E7CD33ECC3
:0702910033FC5002B2D5223C
:10029800EC30E7100FBF000C0EBE00080DBD0004C7
:1002A8000BEB6014A2D5EB13FCED92E7FD2274FF73
:1002B800FCFDFEFF22E480F8A2D574FF13FC7D80CC
:0302C800E480EFE0
:1004E000020560E493A3F8E493A34003F68001F2CD
:1004F00008DFF48029E493A3F85407240CC8C3331D
:10050000C4540F4420C8834004F456800146F6DFEB
:10051000E4800B010204081020408090073BE47E39
:10052000019360BCA3FF543F30E509541FFEE493E0
:10053000A360010ECF54C025E060A840B8E493A3A7
:10054000FAE493A3F8E493A3C8C582C8CAC583CAD2
:10055000F0A3C8C582C8CAC583CADFE9DEE780BE8A
:01075A00009E
:1002CB00EF8DF0A4A8F0CF8CF0A428CE8DF0A42E47
:0202DB00FE2201
:1002DD00BC000BBE0029EF8DF084FFADF022E4CC05
:1002ED00F875F008EF2FFFEE33FEEC33FCEE9DECCE
:1002FD00984005FCEE9DFE0FD5F0E9E4CEFD22ED14
:10030D00F8F5F0EE8420D21CFEADF075F008EF2F5D
:10031D00FFED33FD4007985006D5F0F222C398FD4E
:05032D000FD5F0EA22EB
:0E033200C3E49FFFE49EFEE49DFDE49CFC22DC
:00000001FF
